:100000000C94B6080C94DE080C94DE080C94DE0800
:100010000C94DE080C94DE080C94DE080C94C12AC3
:100020000C94DE080C943A2B0C94DE080C94DE0839
:100030000C94DE080C94DE080C94DE080C94DE08A8
:100040000C9458290C94DE080C94DE080C94DE08FD
:100050000C94DE080C94DE080C94DE080C94DE0888
:100060000C94A2290C94DE0807634236B79BD8A7EC
:100070001A39685618AEBAAB558C1D3CB7CC5763CD
:10008000BD6DEDFD753EF6177231BF000000803F7B
:1000900008000000BE922449123EABAAAA2ABECD97
:1000A000CCCC4C3E00000080BEABAAAAAA3E000009
:1000B0000000BF000000803F000000000008417801
:1000C000D3BB4387D1133D190E3CC3BD4282AD2B38
:1000D0003E68EC8276BED98FE1A93E4C80EFFFBE30
:1000E00001C4FF7F3F00000000004175746F004EA7
:1000F0006F726D005363616E004F6E65000053694F
:100100006E65005361770000525361770054726945
:1001100000004E6F69730053696E63005472707A09
:100120000043736177002031562000302E35560091
:10013000302E325600302E31560035306D56003399
:1001400033757300343975730031303075003230D7
:100150003075003530307500353830750038303046
:10016000750020316D730020326D730020356D7382
:100170000031306D730032306D730035306D7300B7
:10018000302E317300302E327300302E3573002044
:10019000317320002032732000203573200020317D
:1001A000307300302E367500312E337500332E310A
:1001B0007500362E33750031337573003331757326
:1001C0000036337573004F4E0000494E56004F46BF
:1001D0004600000102030405060708090A0B0C0D7E
:1001E0000E0F101112131415161718191A1B1C1DB7
:1001F0001E1F202122232425262728292A2B2C2DA7
:100200002E2F303132333435363738393A3B3C3D96
:100210003E3F404142434445464748494A4B4C4D86
:100220004E4F505152535455565758595A5B5C5D76
:100230005E5F606162636465666768696A6B6C6D66
:100240006E6F707172737475767778797A7B7C7D56
:100250007E7FFFFEFDFCFBFAF9F8F7F6F5F4F3F20A
:10026000F1F0EFEEEDECEBEAE9E8E7E6E5E4E3E2F6
:10027000E1E0DFDEDDDCDBDAD9D8D7D6D5D4D3D2E6
:10028000D1D0CFCECDCCCBCAC9C8C7C6C5C4C3C2D6
:10029000C1C0BFBEBDBCBBBAB9B8B7B6B5B4B3B2C6
:1002A000B1B0AFAEADACABAAA9A8A7A6A5A4A3A2B6
:1002B000A1A09F9E9D9C9B9A9998979695949392A6
:1002C00091908F8E8D8C8B8A898887868584838296
:1002D000818002060A0E12161A1E22262A2E323695
:1002E0003A3E42464A4E52565A5E62666A6E72768E
:1002F0007A7E82868A8E92969A9EA2A6AAAEB2B67E
:10030000BABEC2C6CACED2D6DADEE2E6EAEEF2F66D
:10031000FAFEFFFFFFFFFFFFFFFFFFFFFFFFFFFFF3
:10032000FFFFFFFFFFFFFFFFFFFFFFFFFFFFFFFFDD
:10033000FFFFFFFFFFFFFFFFFFFFFFFFFFFFFFFFCD
:10034000FFFFFFFFFFFFFFFFFFFFFFFFFFFFFFFFBD
:10035000FFFFFEFAF6F2EEEAE6E2DEDAD6D2CECA27
:10036000C6C2BEBAB6B2AEAAA6A29E9A96928E8A0D
:1003700086827E7A76726E6A66625E5A56524E4AFD
:1003800046423E3A36322E2A26221E1A16120E0AED
:100390000602000000000000000000000000000055
:1003A000000000000000000000000000000000004D
:1003B000000000000000000000000000000000003D
:1003C000000000000000000000000000000000002D
:1003D00000002122222324252627292B2C2E3032EF
:1003E00033353738393A3B3C3C3C3C3C3B3A393777
:1003F000363432302D2B29272422211F1D1C1B1B94
:100400001A1A1B1C1D1E202225272A2D303336398F
:100410003C3F4143454748484848474644423F3CA3
:100420003834302B26221D1814100C080503010047
:1004300000010205080C12181F273039444F5A6674
:10044000727E8A97A3AFBAC5CFD9E1E9EFF5F9FC7F
:10045000FEFFFEFCF9F5EFE9E1D9CFC5BAAFA397EE
:100460008A7E72665A4F443930271F18120C0805CD
:1004700002010000010305080C1014181D22262B90
:100480003034383C3F424446474848484847454353
:10049000413F3C393633302D2A272522201E1D1C92
:1004A0001B1A1A1B1B1C1D1F21222427292B2D3030
:1004B00032343637393A3B3C3C3C3C3C3B3A3938A9
:1004C00037353332302E2C2B292726252423222280
:1004D0002121A7F1D92A82C8D8FE434D98558CE234
:1004E000B347171198542F112D0558F56BD688076F
:1004F000999248336241F30D23E55F30D1C8ED6135
:100500000C4B0235398184B814A29CB45A672ACAAC
:10051000E548E9C5F1B0C4158AE59B4D39F6F7E821
:10052000A105D3FEEDA5D5F3D9E45BFA6CC351E286
:1005300020AE0CE106986D61FF34A11E19FD365006
:10054000E9B7818FC33A1E0FC02C44557AC8AB500F
:10055000C9B2DEB2F6B5E24C4FDD9F8867BDCE1F53
:10056000F261008E7897970E346207D75E47A158E4
:10057000298E5BA2F56246869CC42E362A0273122F
:1005800064E60687EF5309D108534F51F8658FB4DD
:10059000F080B7CB19EE9AEBD718CC4FA27C8C37F2
:1005A000DFC1ADA5D133D13ABE03F021E9B1B78C9B
:1005B000CBD82F7FF2B38C6D48D01E481B2D4FAF88
:1005C0007171805FD7F2D39EF4C4F19B9496E81DBD
:1005D000AB8100020406080A0C0E10121416181A39
:1005E0001C1E20222426282A2C2E30323436383A5B
:1005F0003C3E40424446484A4C4E50525456585A4B
:100600005C5E60626466686A6C6E70727476787A3A
:100610007C7E80828486888A8C8E90929496989A2A
:100620009C9EA0A2A4A6A8AAACAEB0B2B4B6B8BA1A
:10063000BCBEC0C2C4C6C8CACCCED0D2D4D6D8DA0A
:10064000DCDEE0E2E4E6E8EAECEEF0F2F4F6F8FAFA
:10065000FCFEFFFEFCFAF8F6F4F2F0EEECEAE8E657
:10066000E4E2E0DEDCDAD8D6D4D2D0CECCCAC8C63A
:10067000C4C2C0BEBCBAB8B6B4B2B0AEACAAA8A62A
:10068000A4A2A09E9C9A98969492908E8C8A88861A
:100690008482807E7C7A78767472706E6C6A68660A
:1006A0006462605E5C5A58565452504E4C4A4846FA
:1006B0004442403E3C3A38363432302E2C2A2826EA
:1006C0002422201E1C1A18161412100E0C0A0806DA
:1006D0000402FFFEFDFCFBFAF9F8F7F6F5F4F3F27D
:1006E000F1F0EFEEEDECEBEAE9E8E7E6E5E4E3E272
:1006F000E1E0DFDEDDDCDBDAD9D8D7D6D5D4D3D262
:10070000D1D0CFCECDCCCBCAC9C8C7C6C5C4C3C251
:10071000C1C0BFBEBDBCBBBAB9B8B7B6B5B4B3B241
:10072000B1B0AFAEADACABAAA9A8A7A6A5A4A3A231
:10073000A1A09F9E9D9C9B9A999897969594939221
:1007400091908F8E8D8C8B8A898887868584838211
:1007500081807F7E7D7C7B7A797877767574737201
:1007600071706F6E6D6C6B6A6968676665646362F1
:1007700061605F5E5D5C5B5A5958575655545352E1
:1007800051504F4E4D4C4B4A4948474645444342D1
:1007900041403F3E3D3C3B3A3938373635343332C1
:1007A00031302F2E2D2C2B2A2928272625242322B1
:1007B00021201F1E1D1C1B1A1918171615141312A1
:1007C00011100F0E0D0C0B0A090807060504030291
:1007D0000100000102030405060708090A0B0C0DBD
:1007E0000E0F101112131415161718191A1B1C1DB1
:1007F0001E1F202122232425262728292A2B2C2DA1
:100800002E2F303132333435363738393A3B3C3D90
:100810003E3F404142434445464748494A4B4C4D80
:100820004E4F505152535455565758595A5B5C5D70
:100830005E5F606162636465666768696A6B6C6D60
:100840006E6F707172737475767778797A7B7C7D50
:100850007E7F808182838485868788898A8B8C8D40
:100860008E8F909192939495969798999A9B9C9D30
:100870009E9FA0A1A2A3A4A5A6A7A8A9AAABACAD20
:10088000AEAFB0B1B2B3B4B5B6B7B8B9BABBBCBD10
:10089000BEBFC0C1C2C3C4C5C6C7C8C9CACBCCCD00
:1008A000CECFD0D1D2D3D4D5D6D7D8D9DADBDCDDF0
:1008B000DEDFE0E1E2E3E4E5E6E7E8E9EAEBECEDE0
:1008C000EEEFF0F1F2F3F4F5F6F7F8F9FAFBFCFDD0
:1008D000FEFF7F8285888B8F9295989B9EA1A4A70F
:1008E000AAADB0B2B5B8BBBEC0C3C6C8CBCDD0D21E
:1008F000D4D7D9DBDDDFE1E3E5E7E9EAECEEEFF0C1
:10090000F2F3F4F5F7F8F9F9FAFBFCFCFDFDFDFE56
:10091000FEFEFEFEFEFEFDFDFDFCFCFBFAF9F9F815
:10092000F7F5F4F3F2F0EFEEECEAE9E7E5E3E1DF07
:10093000DDDBD9D7D4D2D0CDCBC8C6C3C0BEBBB8FF
:10094000B5B2B0ADAAA7A4A19E9B9895928F8B88B3
:1009500085827F7C7976736F6C696663605D5A57B8
:1009600054514E4C494643403E3B383633312E2C91
:100970002A272523211F1D1B1917151412100F0ECE
:100980000C0B0A0907060505040302020101010018
:100990000000000000000101010202030405050639
:1009A00007090A0B0C0E0F1012141517191B1D1F27
:1009B000212325272A2C2E313336383B3E4043460F
:1009C000494C4E5154575A5D606366696C6F73763B
:1009D000797C680034FF7CFE3EFE1FFEEA00EF00DB
:1009E000F400F900487A00FE00030108010D01122D
:1009F0000117011C012101487A00487A00487A0059
:100A00006D696E00617672006D61780046434E54E8
:100A1000004652455100444453004652455100445B
:100A20005554590050574D00564F4C5400465245AE
:100A30005100464654004F46533200434832004F5F
:100A40004653310043483100484F4C440052554E04
:100A500000546C657600544732005447310065718C
:100A60006976007265616C0043483100434832008A
:100A700026012B01300135013A013F0144014901B2
:100A80004E01530158015D01620167016C01710162
:100A900076017B01800185018A018F019401990112
:100AA0009E01A301A801AD01B201B701BC01C101C2
:100AB000C601CA01CE01000306090C0F1215181C4D
:100AC0001F2225282B2E303336393C3F41444749DD
:100AD0004C4E515355585A5C5E60626466686A6C4D
:100AE0006D6F70727375767778797A7B7C7C7D7E9A
:100AF0007E7F7F7F7F7F7F7F7F7F7F7F7E7E7D7C0E
:100B00007C7B7A79787776757372706F6D6C6A68B2
:100B1000666462605E5C5A585553514E4C49474476
:100B2000413F3C393633302E2B2825221F1C181507
:100B3000120F0C09060300FDFAF7F4F1EEEBE8E4FE
:100B4000E1DEDBD8D5D2D0CDCAC7C4C1BFBCB9B7EE
:100B5000B4B2AFADABA8A6A4A2A09E9C9A9896945E
:100B60009391908E8D8B8A898887868584848382F1
:100B700082818181818130487A00D208D207D206F1
:100B8000D205D204D203D202D201010000200020FB
:100B90000040004000000000003E5B4F5B3E3E6BAB
:100BA0004F6B3E1C3E7C3E1C183C7E3C181C577D07
:100BB000571C1C5E7F5E1C00183C1800FFE7C3E753
:100BC000FF0018241800FFE7DBE7FF30483A060E65
:100BD0002629792926407F050507407F05253F5AAC
:100BE0003CE73C5A7F3E1C1C08081C1C3E7F14221C
:100BF0007F22145F5F005F5F06097F017F006689C7
:100C0000956A606060606094A2FFA29408047E040C
:100C10000810207E201008082A1C08081C2A080832
:100C20001E101010100C1E0C1E0C30383E383006F2
:100C30000E3E0E06000000000000005F00000007EE
:100C4000000700147F147F14242A7F2A122313081C
:100C5000646236495620500008070300001C2241F8
:100C6000000041221C002A1C7F1C2A08083E08089C
:100C7000008070300008080808080000606000204C
:100C8000100804023E5149453E00427F400072492F
:100C90004949462141494D331814127F10274545D3
:100CA00045393C4A494931412111090736494949E9
:100CB00036464949291E0000140000004034000057
:100CC00000081422411414141414004122140802C0
:100CD000015909063E415D594E7C1211127C7F4933
:100CE0004949363E414141227F4141413E7F494988
:100CF00049417F090909013E414151737F080808B4
:100D00007F00417F41002040413F017F0814224184
:100D10007F404040407F021C027F7F0408107F3EDE
:100D20004141413E7F090909063E4151215E7F094B
:100D3000192946264949493203017F01033F4040B2
:100D4000403F1F2040201F3F4038403F631408149D
:100D50006303047804036159494D43007F414141D5
:100D60000204081020004141417F040201020440B6
:100D700040404040000307080020545478407F283A
:100D80004444383844444428384444287F38545430
:100D9000541800087E090218A4A49C787F08040453
:100DA0007800447D40002040403D007F10284400F2
:100DB00000417F40007C047804787C080404783883
:100DC00044444438FC1824241818242418FC7C08B3
:100DD000040408485454542404043F44243C404030
:100DE000207C1C2040201C3C4030403C44281028E3
:100DF000444C9090907C4464544C4400083641002C
:100E00000000770000004136080002010204023CA5
:100E10002623263C1EA1A161123A4040207A385474
:100E200054555921555579412254547842215554ED
:100E3000784020545579400C1E5272123955555540
:100E400059395454545939555454580000457C412B
:100E50000002457D420001457C407D1211127DF06B
:100E6000282528F07C545545002054547C547C0A95
:100E7000097F4932494949323A4444443A324A485E
:100E800048303A4141217A3A42402078009DA0A062
:100E90007D3D4242423D3D4040403D3C24FF2424B4
:100EA000487E4943662B2FFC2F2BFF0929F620C0D3
:100EB000887E090320545479410000447D41304824
:100EC000484A32384040227A007A0A0A727D0D1967
:100ED000317D2629292F28262929292630484D40C9
:100EE00020380808080808080808382F10C8ACBAC5
:100EF0002F102834FA00007B000008142A14222244
:100F0000142A14085500550055AA55AA55AAFF558C
:100F1000FF55FF000000FF00101010FF0014141414
:100F2000FF001010FF00FF1010F010F0141414FC5C
:100F3000001414F700FF0000FF00FF1414F404FC79
:100F4000141417101F10101F101F1414141F00105A
:100F50001010F0000000001F101010101F101010D3
:100F600010F010000000FF101010101010101010E2
:100F7000FF10000000FF140000FF00FF00001F1022
:100F8000170000FC04F414141710171414F404F4DC
:100F90000000FF00F714141414141414F700F714CD
:100FA0001414171410101F101F141414F41410101C
:100FB000F010F000001F101F0000001F14000000C0
:100FC000FC140000F010F01010FF10FF141414FFB8
:100FD000141010101F00000000F010FFFFFFFFFFB3
:100FE000F0F0F0F0F0FFFFFF0000000000FFFF0F47
:100FF0000F0F0F0F3844443844FC4A4A4A347E02EB
:10100000020606027E027E0263554941633844446B
:101010003C04407E201E2006027E020299A5E7A520
:10102000991C2A492A1C4C7201724C304A4D4D3091
:101030003048784830BC625A463D3E494949007EB6
:101040000101017E2A2A2A2A2A44445F444440514D
:101050004A444040444A51400000FF0103E080FF01
:10106000000008086B6B083612362436060F090F8D
:1010700006000018180000001010003040FF0101A9
:10108000001F01011E00191D1712003C3C3C3C00D2
:1010900000000000000000002300260029000000DE
:1010A0000008000201000003040700000000000027
:1010B000000000000000240027002A0001020408AC
:1010C00010204080010204081020010204081020B2
:1010D00000000000250028002B0004040404040480
:1010E00004040202020202020303030303030100D9
:1010F00008004000000100040102050A1432648067
:1011000080804020100850C30000A0860100400DE0
:10111000030020A1070040420F0021000000310021
:10112000000064000000C8000000F4010000440258
:10113000000020030000E8030000D007000088132F
:10114000000010270000204E000050C30000A086C1
:101150000100400D030020A1070040420F008084E1
:101160001E00404B4C00809698009D2B11241FBE02
:10117000CFEFD8E0DEBFCDBF15E0A0E0B1E0E6EFF5
:10118000F2E702C005900D92AC37B107D9F727E01E
:10119000ACE7B5E001C01D92A33DB207E1F718E04E
:1011A000C6EBD8E004C02197FE010E943839C53B48
:1011B000D107C9F70E94DA2B0C9479390C940000FE
:1011C00028E030E040E8E091C907F091CA0750817B
:1011D0009091D007909595239083E091C707F09167
:1011E000C8079091CF07582F542389F05081952B31
:1011F0009083E091C907F091CA0790815091D00780
:10120000952B9083469521503109E9F60895508138
:1012100090959523EDCF08950895AF92BF92CF9208
:10122000DF92EF92FF920F931F93CF93DF936C01A6
:101230007B018B01040F151FEB015E01AE18BF0887
:10124000C017D10759F06991D601ED91FC91019039
:10125000F081E02DC6010995892B79F7C501DF9151
:10126000CF911F910F91FF90EF90DF90CF90BF90A3
:10127000AF900895833081F028F4813099F0823066
:10128000A9F008958730A9F08830C9F08430B1F40E
:10129000809180008F7D03C0809180008F77809344
:1012A0008000089584B58F7784BD089584B58F7DBF
:1012B000FBCF8091B0008F778093B000089580912C
:1012C000B0008F7DF9CFCF93DF93282F30E0F90165
:1012D000E256FF4E8491F901E454FF4ED491F90196
:1012E000E652FF4EC491CC23A1F081110E943A092D
:1012F000EC2FF0E0EE0FFF1FEC56FF4EA591B491DE
:10130000EC91ED2381E090E009F480E0DF91CF9152
:10131000089580E090E0FACF1F93CF93DF93282FBA
:1013200030E0F901E256FF4E8491F901E454FF4E9A
:10133000D491F901E652FF4EC491CC23A9F0162FA7
:1013400081110E943A09EC2FF0E0EE0FFF1FE053ED
:10135000FF4EA591B4918FB7F894EC91111108C08C
:10136000D095DE23DC938FBFDF91CF911F9108953D
:10137000DE2BF8CFCF93DF9390E0FC01E454FF4ED7
:10138000249186529F4EFC0184918823D1F090E0F5
:10139000880F991FFC01EE54FF4EA591B491FC01FA
:1013A000E053FF4EC591D491623071F49FB7F89429
:1013B0003C91822F809583238C93E8812E2B288368
:1013C0009FBFDF91CF9108958FB7F894EC912E2BAA
:1013D0002C938FBFF6CF8E3008F08E5087708064CC
:1013E00080937C0080917A00806480937A00809161
:1013F0007A0086FDFCCF8091780090917900089565
:101400003FB7F8948091210690912206A09123067F
:10141000B091240626B5A89B05C02F3F19F0019670
:10142000A11DB11D3FBFBA2FA92F982F8827BC013E
:10143000CD01620F711D811D911D42E0660F771F66
:10144000881F991F4A95D1F708958F929F92AF9266
:10145000BF92CF92DF92EF92FF924B015C010E940C
:10146000000A6B017C010E94000A6C197D098E093B
:101470009F09683E734081059105A8F321E0821A17
:101480009108A108B10888EEC80E83E0D81EE11CBF
:10149000F11C81149104A104B10429F7FF90EF908D
:1014A000DF90CF90BF90AF909F908F9008952FB70F
:1014B000F89460911D0670911E0680911F06909110
:1014C00020062FBF08952091F905260F3327331FDB
:1014D00021323105ECF420916E07FC0190E080E0B0
:1014E000243069F082E00895A091F9052191AC01C2
:1014F00047525A4FA40FB52FB11D2C930196861752
:1015000098F38091F905680F6093F90580E00895DC
:1015100081E0089510926E0781E080936D0710922C
:10152000480761E082E10E948C0961E083E10E944A
:101530008C09E9EBF0E080818E7F808380818D7F54
:10154000808388E48093B80085E48093BC0008958C
:10155000CF93DF9391E09093D8058823B9F0C091A1
:10156000B800D091BA008091BC008A7B8093BC0007
:1015700060E082E10E948C0960E083E10E948C09B6
:101580000E948A0AD093BA00C093B800DF91CF912D
:101590000895CF92DF92EF92FF920F931F93CF9314
:1015A000DF93D091970781E0D13208F09CC0C091C1
:1015B00096070E94000A6B017C0180916E078111E1
:1015C0006CC082E080936E0781E080936D078FEF9F
:1015D00080936C0710926B07D0936A07A6E7B7E079
:1015E000EAE4F7E080E0D8138DC0109249078091BB
:1015F0004907CC0FC82BC093490780914807813019
:1016000009F084C0109248070E94000A6B017C0117
:10161000809149078093BB0080917007909171077A
:10162000A0917207B0917307892B8A2B8B2BA1F0A5
:101630000E94000A009170071091710720917207B3
:10164000309173076C197D098E099F0906171707DA
:101650002807390708F442C08091BC0083FDD8CF29
:1016600085EC8093BC000E94000A6B017C01809194
:101670006E07823009F44CC080916C078F3F09F4EB
:1016800069C080916C07803209F466C080916C0754
:10169000803309F463C084E026C080917007909184
:1016A0007107A0917207B0917307892B8A2B8B2B3E
:1016B00009F483CF0E94000A00917007109171070E
:1016C00020917207309173076C197D098E099F096B
:1016D000061717072807390708F06FCF80916F07A3
:1016E0000E94A80A85E01092750710929707109241
:1016F0007407DF91CF911F910F91FF90EF90DF90D2
:10170000CF9008959D9191938F5F6DCF85EEA9CF76
:101710008091700790917107A0917207B091730743
:10172000892B8A2B8B2B09F4A2CF0E94000A0091EF
:1017300070071091710720917207309173076C192F
:101740007D098E099F09061717072807390708F032
:101750008ECFC4CF80E0C7CF82E0C5CF83E0C3CFB8
:101760000895E0912A0680912906E81730F4F0E008
:10177000E854FA4F808190E008958FEF9FEF08952D
:1017800090912A06809129062FEF3FEF981748F491
:10179000E92FF0E0E854FA4F208130E09F5F90930A
:1017A0002A06C90108958091290690912A06891B6D
:1017B000990B0895CF92DF92EF92FF920F931F93B0
:1017C000CF93DF937C01CB018A0120917407222300
:1017D00089F0EB016B01C40ED51ECC15DD0569F057
:1017E0006991D701ED91FC910190F081E02DC70145
:1017F0000995F3CF642F0E94630AC801DF91CF914E
:101800001F910F91FF90EF90DF90CF900895CF93AD
:10181000DF931F92CDB7DEB769832091740722232F
:10182000F9F020919707203258F021E030E0FC01D8
:101830003383228390E080E00F90DF91CF91089571
:1018400080917507E82FF0E0EA58F84F998190836E
:101850008F5F809375078093970781E090E0ECCFCE
:1018600061E0CE0101960E94630AF7CFCF93C82FA3
:101870008091C1078F3FB1F1E091CB07F091CC0788
:1018800080819091D107892B8083E091CD07F091E1
:10189000CE0790818091D207809589238083E09143
:1018A000CB07F091CC0790818091D1078095892357
:1018B00080838091C607882389F0CEBD00000DB4D7
:1018C00007FEFDCF8EB5E091CB07F091CC0780816C
:1018D0009091D107892B8083CF9108958C2F0E94FE
:1018E000E008F1CF8091BF0791E090937407809357
:1018F0009607109275071092970760E088E997E0C5
:101900000E94070C6C2F88E997E00E94070CCF918A
:101910000C94C90A8F929F92AF92BF92CF92DF929E
:10192000EF92FF920F931F93CF93DF9380E00E947B
:10193000360C80E10E94360C80E40E94360C8091C7
:10194000C1078F3F09F46BC030EBF32ED0E0C0E04D
:101950008F2D0E94360C82E00E94360C80E10E949E
:10196000360C10E000E0CE01835F9E4F6C01E091E9
:10197000CB07F091CC0780819091D107892B808390
:10198000E091CD07F091CE0780819091D207892B0D
:101990008083E091CB07F091CC0790818091D107B3
:1019A0008095892380835601A00EB11E20E1E22E8E
:1019B000F50181915F019091C607992369F18EBD70
:1019C00000000DB407FEFDCF8EB5EA94E110F0CF14
:1019D000E091CB07F091CC0780819091D107892BC2
:1019E0008083005F1F4F0038110509F0C0CFC05839
:1019F000DF4FF394C115F4E0DF0709F0A9CFDF91C1
:101A0000CF911F910F91FF90EF90DF90CF90BF90FB
:101A1000AF909F908F9008950E94E008D6CF90904D
:101A2000B8008CE08093B80090EBF92ED0E0C0E0D5
:101A3000882483948F2D0E94360C82E00E94360CFD
:101A400080E10E94360C10E000E0CE01835F9E4FE3
:101A50005C018091BF078092740780939607109273
:101A600075071092970760E488E997E00E94070CD9
:101A70006501C00ED11E80E1E82EF60161916F0173
:101A800088E997E00E94070CEA94E110F6CF0E94E3
:101A9000C90A005F1F4F00381105D9F6C058DF4F43
:101AA000F394C115F4E0DF0729F69092B800A7CFB0
:101AB0000F931F93CF93DF93EC018E89823009F44B
:101AC00053C0833009F4ACC0813009F05CC0EC81B4
:101AD000FD81E41BF50BAF01421B530B77FD3FC0AB
:101AE0008E819F8168177907D4F557FF04C0240FB2
:101AF000351F50E040E08C819D81FA01E20FF31F19
:101B00008E179F071CF49C01241B350B121613061D
:101B100034F5FB0177FD3796A3E0F595E795AA9597
:101B2000E1F7F695FE2FEE27F795E795E40FF51F01
:101B3000E35FFE4F6770772781E090E001C0880F78
:101B40006A95EAF7482F0130110509F472C008F4CC
:101B50007CC02E0F3F1F0230110509F483C0DF91B6
:101B6000CF911F910F910895AC81BD81CD01861B4E
:101B7000970BBC0161507109EE81FF81E41BF50BED
:101B8000AF01421B530B77FDEACF8C819D81681713
:101B900079072CF757FF04C0240F351F50E040E0B1
:101BA0008E819F81FA01E20FF31F8E179F071CF4AD
:101BB0009C01241B350B121613068CF6922FA42FB2
:101BC000A695A695A69580E8A89FD0011124A60FFA
:101BD000B71FA35FBE4F477009F457C058E0541BAE
:101BE000452F652F70E0FB01EB5EFA4F80812517D2
:101BF00008F0B0C0621B71092FEF30E002C03595CC
:101C000027956A95E2F7822301301105A9F108F4BE
:101C100064C00230110509F0A2CF2C9182272EC09A
:101C2000AE81BF81CD01861B970BBC01615071094C
:101C300055CF2E0F3F1FE217F30709F490CF819184
:101C4000DF011197842B8C93F6CF80952E0F3F1FC9
:101C5000E217F30709F483CF9191DF0111979823DD
:101C60009C93F6CFE217F30709F479CF8191DF0156
:101C7000119784278C93F6CF2C91822B8C939417F9
:101C800008F46DCF941BA058BF4F983008F447C09C
:101C90000230110531F5FD01892F20812095208327
:101CA000E058FF4F88508830C0F728EF290F26955D
:101CB0002695269530E02F5F3F4F3695322F22270D
:101CC00037952795A20FB31F977009F448CFE92FD6
:101CD000F0E0E35FFA4F808132C080952C9182233F
:101CE000CDCF81E00130110509F080E08195FD0143
:101CF000292F8083E058FF4F28502830D0F728EF55
:101D0000290F26952695269530E02F5F3F4F369573
:101D1000322F222737952795A20FB31F977099234B
:101D200009F41DCFE92FF0E0E35FFA4F8081013025
:101D3000110541F058F00230110509F010CF9C91C7
:101D4000892702C09C91892B8C9309CF80959C9107
:101D50008923FACF0130110509F48ECF08F4BDCFE5
:101D60000230110509F459CF8DCF0F931F93CF93F4
:101D7000DF93EC018E89823009F45EC0833009F470
:101D8000B5C0813009F067C0AC81BD81CD01841B35
:101D9000950BAC014150510957FD49C08C819D8183
:101DA000481759070CF043C077FF04C0260F371FB0
:101DB00070E060E08E819F81FB01E20FF31F8E17C0
:101DC0009F071CF49C01261B370B121613067CF58B
:101DD000922FA62FA695A695A69580E8A89FD0013C
:101DE0001124A40FB51FA35FBE4F677009F48FC005
:101DF00048E0461B642F70E0FB01EB5EFA4F8081E8
:101E0000241708F002C1621B71092FEF30E002C0F5
:101E1000359527956A95E2F782230130110509F47B
:101E20006DC008F49CC00230110509F4F8C0DF91C0
:101E3000CF911F910F910895EC81FD81E61BF70B67
:101E4000AE81BF81CD01841B950BAC01415051097E
:101E5000BF01621B730B57FDEACF8E819F8148172C
:101E600059072CF777FF04C0260F371F70E060E09A
:101E70008C819D81FB01E20FF31F8E179F071CF4DD
:101E80009C01261B370B121613068CF6FA0157FD20
:101E9000379693E0F595E7959A95E1F7F695FE2F3D
:101EA000EE27F795E795E60FF71FE35FFE4F4770C4
:101EB000552781E090E001C0880F4A95EAF7482F46
:101EC0000130110509F488C008F492C02E0F3F1F9D
:101ED0000230110509F0ABCFE217F30709F4A7CFE1
:101EE0008191DF01119784278C93F6CFEE81FF81DA
:101EF000E61BF70BBF01621B730B4ECF2C91822B9D
:101F00008C93941708F493CF941BA058BF4F98302C
:101F100008F447C00230110531F5FD01892F2081F9
:101F200020952083E058FF4F88508830C0F728EF75
:101F3000290F26952695269530E02F5F3F4F369541
:101F4000322F222737952795A20FB31F977009F4D8
:101F50006ECFE92FF0E0E35FFA4F808132C08095C9
:101F60002C918223CDCF81E00130110509F080E072
:101F70008195FD01292F8083E058FF4F285028309C
:101F8000D0F728EF290F26952695269530E02F5F6C
:101F90003F4F3695322F222737952795A20FB31F33
:101FA0009770992309F443CFE92FF0E0E35FFA4FEC
:101FB00080810130110541F058F00230110509F01F
:101FC00036CF9C91892702C09C91892B8C932FCF6F
:101FD00080959C918923FACF2E0F3F1FE217F307BC
:101FE00009F425CF8191DF011197842B8C93F6CFD3
:101FF00080952E0F3F1F2E173F0709F418CF9191A0
:10200000DF01119798239C93F6CF0130110509F455
:1020100075CF08F4A4CF0230110509F075CF2C91CB
:1020200082276ECFDC0177FD67C018968D919C9159
:102030001997681779070CF05FC057FD5DC01A96B5
:102040008D919C911B97481759070CF055C05696D7
:102050008C9156978230B9F0833041F1813049F448
:1020600014968D919C91841B950BAB01BC01615022
:1020700071092130310521F108F43FC022303105CA
:1020800009F458C008951496ED91FC911597E61B3C
:10209000F70BBF016150710916968D919C91FC015F
:1020A000E41BF50BAF0141505109E3CF16968D911A
:1020B0009C91861B970BBA01AC0141505109D9CFB5
:1020C000FA0157FD3796A3E0F595E795AA95E1F754
:1020D000F695FE2FEE27F795E795E60FF71FE35FDE
:1020E000FE4F4770552721E030E001C0220F4A958E
:1020F000EAF78081822B80830895FA0157FD379695
:1021000023E0F595E7952A95E1F7F695FE2FEE2762
:10211000F795E795E60FF71FE35FFE4F47705527EA
:1021200081E090E001C0880F4A95EAF780959081A0
:102130008923E1CFFA0157FD379683E0F595E795BE
:102140008A95E1F7F695FE2FEE27F795E795E60FCE
:10215000F71FE35FFE4F4770552721E030E001C0D5
:10216000220F4A95EAF780818227C5CF0895FC01A6
:102170006370668B8481958126813781613039F067
:10218000633029F0918780873387228708953187CC
:1021900020879387828708952F923F924F925F9274
:1021A0006F927F928F929F92AF92BF92CF92DF9267
:1021B000EF92FF920F931F93CF93DF93CDB7DEB7CC
:1021C0006A970FB6F894DEBF0FBECDBF9A8F898F86
:1021D0007A8369834A01D22E18870F833701BC2C7A
:1021E000DC0159962D913C915A972115310509F042
:1021F00015C118968D919C911997681779070CF065
:10220000D7C11A968D919C91481759070CF0D0C1EF
:102210004C2C512CB6E0CB9E600D711D11247C8797
:102220006B87161617060CF0C3C1EA2DF0E0FA878B
:10223000E98793E0EE0FFF1F9A95E1F7F88BEF87A0
:10224000CF01840F951F181619060CF0B1C1A98D86
:10225000BA8D58968C91811104C0BFEABD1508F45F
:10226000D394A98DBA8DED91FC9111970284F385D9
:10227000E02DCD010995B5E0DB9EC0011124E98177
:10228000FA81FC83EB83312C212C9C012C56344F9A
:10229000388F2F8B4A2D50E05E8B4D8BEF89F88D58
:1022A000E20DF31D44919E828D82D12CC12C698157
:1022B0007A81620D731D7A8B698B842F90E09C8BE1
:1022C0008B8BE98DFA8DA081B18140FF82C0F1E056
:1022D000BF126FC0AF126DC01C96ED91FC912F81A3
:1022E0003885A4014C0D5D1D69897A89898D9A8D87
:1022F0000995EB89FC89F595E7954E2F5FEFC51A97
:10230000D50A6D817E818D899E89680F791F7E83B4
:102310006D8398E0C916D10481F6AFEF2A1A3A0A04
:10232000EB81FC81E40DF51DFC83EB83F5E02F16BA
:10233000310409F0B3CF2F81388526153705B9F060
:10234000A98DBA8DED91FC91B1E0BB1257C0AB12D3
:1023500055C069817A816B5F7F4F0088F189E02DDC
:10236000830128E030E0A401898D9A8D0995A98D1B
:10237000BA8DED91FC9111970688F789E02DCD017A
:102380006A960FB6F894DEBF0FBECDBFDF91CF9136
:102390001F910F91FF90EF90DF90CF90BF90AF9083
:1023A0009F908F907F906F905F904F903F902F9075
:1023B00009941E96ED91FC91EF80F88409851A85A9
:1023C00092014D815E816B817C81898D9A8D099509
:1023D00090CF2F8138852615370509F48ACF31E053
:1023E000B31207C0A31205C01C96ED91FC91930196
:1023F00078CF1E96ED91FC917301E0CF6B857C85C3
:10240000641975090684F785E02D73010F85188915
:102410009201A401898D9A8D0995A9CFF90134966D
:102420009491329745915491D91AB7E0DB9E400DB3
:10243000511D1124F901259134913C8B2B8BFA010C
:1024400025903490FA013296749031963491398BFC
:10245000329664903196449041E04C1518F04A153C
:1024600008F07FC0662D062C000C770B7C836B83F5
:10247000842D042C000C990B9E838D83A98DBA8D1D
:10248000ED91FC9111970284F385E02DCD01099522
:10249000512CD12CC12CEA2DF0E0FA87E9872B2DA5
:1024A00030E03C872B87A401440D511D47FC5A9511
:1024B000588F4F8B69817A81660D711D67FC7A9503
:1024C0007E876D877989C71608F051CF2C2D30E0B3
:1024D0004D815E81420F531FA985BA854A9FC00175
:1024E0004B9F900D5A9F900D1124FC01E80DF91D92
:1024F000F88BEF87852D612C4F89588D420F531F24
:102500005E8B4D8B671408F050C044244394480EF2
:10251000877041F4C1010196EB89FC89E20DF31D3E
:10252000D4901C01D7FE19C0A98DBA8DED91FC91F4
:10253000662D70E0B1E0BB1219C0AB1217C02D853B
:102540003E85620F731F0484F585E02D2F81388549
:102550004D895E89898D9A8D0995DD0C6394842D52
:10256000D1CF1E821D821C821B8288CF4B815C8151
:10257000640F751FAB85BC856A9FC0016B9F900D72
:102580007A9F900D112469817A81680F791F0684E2
:10259000F785E02DEF80F88409851A859D014F8528
:1025A0005889898D9A8D0995D8CF570CC3948ACFB5
:1025B0006A960FB6F894DEBF0FBECDBFDF91CF9104
:1025C0001F910F91FF90EF90DF90CF90BF90AF9051
:1025D0009F908F907F906F905F904F903F902F9043
:1025E00008958F929F92AF92CF92EF92FF920F93A6
:1025F0001F93CF93DF93EC01262F898D9A8D00973F
:1026000009F051C06A30D1F41D861C868D8948E0DE
:10261000849F900111248E859F85820F931F9F8731
:102620008E8781E090E0DF91CF911F910F91FF9015
:10263000EF90CF90AF909F908F9008956D3089F379
:10264000CC88AD888F898823C1F08C859D8536E044
:10265000C39E800D911D112448855985481759073F
:1026600064F44E855F851D861C8638E0A39EC001FC
:102670001124840F951F9F878E87EA88FB8808891D
:1026800019894E855F856C857D85CE010E94CC10B1
:102690002C898C859D8546E0249F800D911D1124F9
:1026A0009D878C87BECF6A3069F41D861C86FC012D
:1026B0003896E4912D898E859F85E29F800D911D2E
:1026C0001124ADCF6D3009F4ACCFFC0134963491B8
:1026D000631708F4A6CF3296E491E61708F4A1CF69
:1026E000FC01329685909490462F431B342F47E08F
:1026F000349F800C911C1124F40132963491319650
:10270000E4913323A9F1EE2399F1CC88F4013596B5
:10271000E491AD884F89442301F10E2E000CFF0B8C
:10272000E30FF11DCE9EA001CF9E500D11246C85AC
:102730007D85460F571F68857985641775076CF48A
:102740004E855F851D861C86FC013896E491AE9E01
:10275000400D511D11245F874E87EA88FB88088948
:1027600019894E855F856C857D85CE010E94CC10D0
:10277000F4013496E4912C898C859D85E29F800D2F
:10278000911D11248DCF0F931F93CF93DF938C0155
:10279000D0E0C0E0F801EC0FFD1F6491662341F02A
:1027A00084EA97E00E94F112892B11F02196F2CF72
:1027B000CE01DF91CF911F910F910895682F84EA88
:1027C00097E00C94F1126F927F928F929F92AF924A
:1027D000BF92CF92DF92EF92FF920F931F93CF930E
:1027E000DF93EC016B015A0139014801E881F9815D
:1027F0000284F385E02D0995E881F9810288F38947
:10280000E02D87019301A501B601CE010995A5012F
:10281000480D591D41505109E881F9810288F38919
:10282000E02D9301B601CE010995E881F981008878
:10283000F189E02D9401A501B601CE010995C60CE0
:10284000D71CB60161507109E881F9810088F189CE
:10285000E02D9401A501CE010995E881F981068852
:10286000F789E02DCE01DF91CF911F910F91FF905D
:10287000EF90DF90CF90BF90AF909F908F907F9020
:102880006F9009946F927F928F929F92AF92BF92B6
:10289000CF92DF92EF92FF920F931F93CF93DF932C
:1028A0005C01EB016A01490138018701DC01ED910E
:1028B000FC916217730719F5641675062CF0962DB6
:1028C000872D3A01C92ED82E9601261937092F5F78
:1028D0003F4F048CF58DE02DA301BE01C501099584
:1028E000DF91CF911F910F91FF90EF90DF90CF90EC
:1028F000BF90AF909F908F907F906F9008954615F6
:10290000570591F42617370724F0892D4B01C22F64
:10291000D82F9E01281939092F5F3F4F068CF78D5C
:10292000E02DA601B401DACF0284F385E02D0995EC
:10293000D501ED91FC910488F589E02D8301940186
:10294000A601BE01C5010995D501ED91FC9106884E
:10295000F789E02DC501DF91CF911F910F91FF9075
:10296000EF90DF90CF90BF90AF909F908F907F902F
:102970006F900994EF92FF920F931F93DC011A96C8
:102980000D911C911B9718962D913C911997ED91E3
:10299000FC9100A0F1A1E02D7B0150E040E070E04F
:1029A00060E009951F910F91FF90EF9008954F926D
:1029B0005F926F927F928F929F92AF92BF92CF92CF
:1029C000DF92EF92FF920F931F93CF93DF936C01EF
:1029D0002B015A0139014801DC01ED91FC9102847F
:1029E000F385E02D0995E201640C751CD601ED918B
:1029F000FC91C615D7055CF40088F189E02D8701AC
:102A00009401A501BE01C60109952196EFCF068864
:102A1000F789E02DC601DF91CF911F910F91FF90B3
:102A2000EF90DF90CF90BF90AF909F908F907F906E
:102A30006F905F904F9009948F929F92AF92BF9248
:102A4000CF92DF92EF92FF920F931F93CF93DF937A
:102A5000EC015B014A016901E881F9810284F38597
:102A6000E02D099595012C0D3D1D21503109E8817E
:102A7000F9810488F589E02D78018401A401B5016C
:102A8000CE010995E881F9810688F789E02DCE010C
:102A9000DF91CF911F910F91FF90EF90DF90CF903A
:102AA000BF90AF909F908F9009948F929F92AF921A
:102AB000BF92CF92DF92EF92FF920F931F93CF932B
:102AC000DF93EC015B014A0169017801E881F9813A
:102AD0000284F385E02D0995C80CD91C86010150AC
:102AE0001109E881F9810488F589E02D9501A40197
:102AF000B501CE010995E881F9810688F789E02DB5
:102B0000CE01DF91CF911F910F91FF90EF90DF9059
:102B1000CF90BF90AF909F908F900994EF92FF92CB
:102B20000F931F93DC01ED91FC9100A0F1A1E02D2A
:102B300009951F910F91FF90EF9008950F931F93A8
:102B4000DC01ED91FC91068CF78DE02D09951F912C
:102B50000F9108950F931F93DC01ED91FC91048C6C
:102B6000F58DE02D09951F910F910895DC01ED91F0
:102B7000FC910084F185E02D09942F923F924F92B1
:102B80005F926F927F928F929F92AF92BF92CF92FD
:102B9000DF92EF92FF920F931F93CF93DF9300D0BA
:102BA00000D000D0CDB7DEB73C016A013E832D8353
:102BB000FC82EB825801A41AB50AB7FE03C0B19497
:102BC000A194B1088D809E80861A970A97FE03C053
:102BD0009194819491088A149B045CF0902F812F2A
:102BE0000D811E819D838E839C2D8D2D6B01692F00
:102BF000782F0C151D055CF09D818E817E836D8381
:102C0000692F782F902F812F8601C92ED82E16017B
:102C1000201A310A2B012D813E81421A530A57FE98
:102C200003C0519441945108710137FE03C03FEF36
:102C3000E31AF30AF594E7948D819E81861797072E
:102C40005CF5A1E0B0E0BA83A983C016D1064CF1CF
:102C5000D301ED91FC910484F585E02D2B813C811D
:102C6000A8016D817E818A149B041CF04D815E81D8
:102C7000B801C3010995E418F508F7FE0AC02D81D3
:102C80003E8189819A81280F391F3E832D83E20C72
:102C9000F31C0F5F1F4FD9CF2FEF3FEF3A832983EC
:102CA000D4CF26960FB6F894DEBF0FBECDBFDF910E
:102CB000CF911F910F91FF90EF90DF90CF90BF9039
:102CC000AF909F908F907F906F905F904F903F90CC
:102CD0002F900895089590E080E008958130910547
:102CE00021F489E18093810008958830910511F4E1
:102CF0008AE1F8CF8034910511F48BE1F3CF81158F
:102D000021E0920711F48CE1EDCF8115944011F48C
:102D10008DE1E8CF88E1E6CFE0913206F0E0EE0FFA
:102D2000FF1FE251FF4E859194910E946E1683E23F
:102D30008093800061E08AE00C94BA09CF92DF9220
:102D4000EF92FF92082E000C990B9C0197FF04C094
:102D500022273327281B390B243031050CF03DC0C6
:102D60002330310509F43CC02230310509F43BC061
:102D700021E030E04091300650913106829F6001A1
:102D8000839FD00C929FD00C11240D2C000CEE08C8
:102D9000FF08C40ED51EE11CF11C80913206E82FFD
:102DA000F0E0EE0FFF1FE657F44F4591549170E0AD
:102DB00060E0C416D506E606F706C4F4C12CD12C93
:102DC0007601C394882329F1815080933206CC2464
:102DD000CA94DC2CE12CF12C1CC020E032E0CACFDC
:102DE00020E830E0C7CF29E130E0C4CFC114D104DE
:102DF00091E0E906F1046CF0843048F78F5F80932E
:102E00003206E82FF0E0EE0FFF1FE657F44FC590B3
:102E1000D490E0913206F0E0EE0FFF1FE251FF4E3A
:102E2000859194910E946E16D0923106C092300620
:102E3000D0928900C092880020910501A0913006AF
:102E4000B091310630E00E943E39672F782F892FEC
:102E5000992787FD9A9570938B0060938A00FF9065
:102E6000EF90DF90CF90089580914507853179F0FC
:102E7000863191F08731A9F08831C1F08931D9F0DC
:102E80008A31F1F460E070E08AE792E4089560E04E
:102E900070E080EA9FE3089560E070E088E490E4E9
:102EA000089560E070E088EC90E4089560E070E0E0
:102EB00088E491E4089560E070E08AEF91E4089579
:102EC00060E070E080E29FE30895FC01E35CF94F6D
:102ED0002081FC01E25CF94F3081230F3327331F3F
:102EE000FC01E15CF94F8081820F932F911D0895C1
:102EF0008F929F92AF92BF92CF92DF92EF92FF920A
:102F00004B015C01C0900101D0900201E0900301EF
:102F1000F0900401D701C60181149104A104B10409
:102F2000E1F1D501CB01B7FE07C088279927DC0165
:102F300088199909AA09BB0984309105A105B10531
:102F400084F0C701B60128E230E040E050E00E9482
:102F50001939A22FB32F1A161B06ACF0A1E0B0E06E
:102F600012C083309105A105B10539F4C701B6013E
:102F70002CE231E040E050E0EACF0297A105B10534
:102F800069F7A9E1B0E0A50194010E945839DC017C
:102F9000CB018C0D9D1DAE1DBF1D803422E4920718
:102FA0002FE0A207B10524F08FE392E4AFE0B0E098
:102FB000181619061A061B0624F081E090E0A0E01E
:102FC000B0E08C159D05AE05BF0509F443C08093A4
:102FD000010190930201A0930301B093040160E00A
:102FE00070E0CB010E9478178091A805833390F19F
:102FF0001092A80560910101709102018091030176
:10300000909104010E94DA352AE037ED43E25CE357
:103010000E948F36209170002E7F2093700020E058
:1030200030E040E85FE40E948F3629E139E145EF66
:1030300056E40E9430350E94A9356093A405709330
:10304000A5058093A6059093A705809170008160E7
:1030500080937000FF90EF90DF90CF90BF90AF9083
:103060009F908F90089562E08BE00E94BA09E0EB98
:10307000F0E080818C738083E1EBF0E08081887FD9
:103080008083E0E7F0E080818E7F8083089561E0B7
:103090008BE00E94BA09E1EBF0E0808181608083DF
:1030A00080818D7F808380818B7F8083A0EBB0E0E7
:1030B0008C918F7B8C938C9180688C938C918160A8
:1030C0008C938C918D7F8C938081877F8083E0E7C8
:1030D000F0E0808181608083609101017091020144
:1030E00080910301909104010E94DA3520E030E0E4
:1030F00040E85FE40E948F362AE037ED43E25CE36C
:103100000E948F3629E139E145EF56E40E943035BF
:103110000E94A9356093A4057093A5058093A60528
:103120009093A705E0912E06F0E0EE0FFF1FE65802
:10313000F44F8591949190939E0580939D050895F9
:103140000F931F93CF93DF93D82FC62F8A010E942E
:10315000EB09012E000C220B330B092E000CAA0BDD
:10316000BB0BA9019801280F391F4A1F5B1FE09173
:103170004207D111E091400784E0E89FF00111245B
:10318000E35EFA4F60817181828193810E94D3381E
:10319000AB01BC015E5F6F4F7F4F8AE0759567950D
:1031A000579547958A95D1F777FF03C040E050E0E7
:1031B000BA014D3351056105710524F04CE350E02F
:1031C00060E070E0842FC13011F48CE3841BDF9148
:1031D000CF911F910F9108954F925F926F927F92BE
:1031E0008F929F92AF92BF92DF92EF92FF920F93D6
:1031F0001F93CF93DF93E0900B01F0900C01E091CF
:10320000420724E0E29FF0011124E35EFA4F808040
:103210009180A280B380D0904307EEE3F6E00EE306
:1032200017E0EF013CE3432E512C612C712CA1914E
:10323000B191AE0DBF1DA50194010E945839DC016A
:10324000CB019E5FAF4FBF4F2AE0B595A7959795ED
:1032500087952A95D1F7B7FF03C080E090E0DC01A5
:103260008D339105A105B10524F08CE390E0A0E039
:10327000B0E031E0D31207C0A3019201281B390B43
:103280004A0B5B0BC90189930E171F0781F6DF916B
:10329000CF911F910F91FF90EF90DF90BF90AF9073
:1032A0009F908F907F906F905F904F9008954F9276
:1032B0005F926F927F92AF92BF92CF92DF92EF9226
:1032C000FF920F931F932C0180917A00887F846076
:1032D00080937A000E94000A6B017C010EE316E0E5
:1032E0008EE3A82E87E0B82E712C612C0E94000A74
:1032F0006C197D098E099F0964157505860597056A
:10330000A8F380E00E94EB09F801819391938F016B
:10331000C40CD51CE61CF71CAE16BF0639F71F916E
:103320000F91FF90EF90DF90CF90BF90AF907F9084
:103330006F905F904F900C94EC18909134069770BA
:10334000891319C01092B5071092B40721E030E03C
:103350003093B7072093B60727E630E03093B107E4
:103360002093B00728E0829FC00111249093B307F7
:103370008093B207089521E030E03093B5072093A1
:10338000B4071092B7071092B607E6CF0E94630900
:10339000892B19F48EE70C94DE13089580919B0518
:1033A0008823C1F010929B051092B100109270001A
:1033B000809198058093B000809197058093B1002B
:1033C0001092810080919A058093800080919905E8
:1033D0008093810008950F931F9390910001981797
:1033E00021F081E01F910F9108950E94570A0091EA
:1033F0008105109182052091830530918405DC01BF
:10340000CB01801B910BA20BB30B813727E19207F5
:10341000A105B10568F4813A2FE09207A105B10535
:1034200048F4813D9740A105B105D8F282E0DACF9A
:1034300084E0D8CF83E0D6CF8A3031F5809134064E
:103440008F5F8E31F0F48093340680912C068111C9
:1034500007C080913406833019F484E080933406E9
:103460008091340690EF980F933010F010923D0643
:1034700090E023E0959587952A95E1F780932C06B7
:10348000089510923406E1CF8111FACF809134066D
:10349000882369F081508093340680912C06811135
:1034A000DFCF809134068330D9F682E0D7CF8DE12B
:1034B000F2CF833061F480914507882331F0843165
:1034C00019F081508093450708958AE1FBCF87303A
:1034D000D9F7809145078A3118F010924507089571
:1034E000833191F38F5FEECF833041F480914007B9
:1034F000882319F081508093400708958730E9F7B9
:10350000809140078430C8F78F5FF5CF833041F456
:1035100080914207882319F08150809342070895D3
:103520008730E9F7809142078430C8F78F5FF5CF85
:10353000FC0101900020E9F73197AF01481B590BBE
:10354000BC0184EA97E00C940D098F929F92AF9290
:10355000BF920F931F93CF93DF93CDB7DEB7A197A1
:103560000FB6F894DEBF0FBECDBF19A2423008F4EB
:103570004AE08E010F5D1F4F842E912CB12CA12C9F
:10358000A50194010E94F738E62FB901CA01EA307B
:10359000F4F4E05DD801EE938D01232B242B252B31
:1035A00079F790E080E0109719F0CD010E94981A09
:1035B000A1960FB6F894DEBF0FBECDBFDF91CF91BD
:1035C0001F910F91BF90AF909F908F900895E95CED
:1035D000E1CF009711F00C94981A90E080E00895E4
:1035E0004F925F926F927F928F929F92AF92BF9213
:1035F000CF92DF92EF92FF92CF93DF936B017C012A
:10360000D42FAC019B010E949237882391F08FE662
:1036100095E0DF91CF91FF90EF90DF90CF90BF903A
:10362000AF909F908F907F906F905F904F900C9491
:10363000981A26013701E89477F82FEF3FEF4FE70C
:103640005FE7C301B2010E94923781110DC02FEFD5
:103650003FEF4FE75FE7C301B2010E942B35181619
:103660001CF483E795E0D5CF2FEF3FEF4FE75FE402
:10367000C701B6010E948A3618161CF487E795E048
:10368000C8CF2FEF3FEF4FE75FECC701B6010E94B5
:103690002B3587FDF3CF20E030E0A901C701B6014B
:1036A0000E942B35912C812C87FF08C08DE20E944F
:1036B000DE134C01F7FAF094F7F8F094CD2FA12C1B
:1036C00060E070E080E09FE3AD1640F420E030E081
:1036D00040E251E40E943035A394F6CFA701960151
:1036E0000E94BF342B013C010E94A9355B016C0193
:1036F0004AE00E94A51A7C01E80CF91CDD23B1F117
:10370000C601B5010E94D8359B01AC01C301B201CD
:103710000E94BE344B015C018EE20E94DE13E80E73
:10372000F91EC15018F120E030E040E251E4C5013B
:10373000B4010E948F362B013C010E94A9354B0138
:10374000B12CA12C4AE0C501B4010E94A51AE80ED3
:10375000F91EC501B4010E94D8359B01AC01C3011B
:10376000B2010E94BE344B015C01DBCFC701DF9187
:10377000CF91FF90EF90DF90CF90BF90AF909F9050
:103780008F907F906F905F904F900895EDE0F1E003
:1037900080E094E0DF019C011D9221503040E1F770
:1037A00008950E94743985ED8093BC008091700764
:1037B00090917107A0917207B09173070796A11DB0
:1037C000B11D23E0B695A795979587952A95D1F7D2
:1037D0002091BC0024FD03C010926E070895409113
:1037E0007007509171076091720770917307452BB4
:1037F000462B472B69F30097A105B10541F025E35E
:103800002A95F1F700000197A109B109E1CF809154
:103810006F070C94A80A0C94B0340C94A8342F921F
:103820003F924F925F926F927F928F929F92AF9250
:10383000BF92CF92DF92EF92FF920F931F93CF939D
:10384000DF93CDB7DEB72A970FB6F894DEBF0FBE71
:10385000CDBF2EEB36E0EEE3F6E0808104E080029F
:10386000C00111248857910980381FEF91070CF48B
:10387000D6C18038910514F08FE790E08193DF0185
:10388000A158BF4F1C922E173F0739F7EEE3F6E021
:1038900090E080E041E050E020E830E03595279569
:1038A000B901680F791F60387105C4F7B90161501B
:1038B000710986239723820F931F48175907ACF489
:1038C0002181DC01A25CB94F3C9131832C938F01A3
:1038D0000F571F4FD8012C91BC016254794FDB0167
:1038E0003C91D8013C93DB012C934F5F5F4F3196A5
:1038F0004038510589F6B7E0AB2EB12C21E030E01D
:103900004901880C991CCC24C394D12C0A2C02C0E8
:10391000CC0CDD1C0A94E2F7DE82CD8246EB5AE045
:103920008EE396E0FA01E05CFF4F2490FA01649187
:10393000022C000C3308359427946195062E000C58
:10394000770B6B01D594C794DA82C9828901080F7D
:10395000191F1A870987FC01A985BA856C91062E63
:10396000000C770B269E7001279EF00C369EF00C03
:103970001124A058BF4FBC83AB834C90042C000C87
:103980005508C980DA80C49C8001C59C100DD49C68
:10399000100D1124E6FA772470F86801CC0CCD2CB8
:1039A000CC1CDD087C18EE0CEF2CEE1CFF08E70C9D
:1039B00006FB002700F9E01A249C8001259C100DCD
:1039C000349C100D1124A981BA81A69F3001A79FB4
:1039D000700CB69F700C1124B301660F672F661F21
:1039E000770B6801CC0CCD2CCC1CDD086C0D66FA75
:1039F000662460F8660D06FB002700F9060F6F01CC
:103A0000B0E8CB0ED11CD6016C90062C000C7708C8
:103A1000759467944080042C000C55085594479485
:103A2000642D6E19A985BA856C93662D601BAB81D8
:103A3000BC816C93E40CE082060DD6010C93C98422
:103A4000DA84C80CD91CDA86C986E80DF91DBF01D5
:103A50006E537640603871050CF47ECF0D811E8167
:103A6000400F511F0196BC016E53764062177307D9
:103A70000CF458CF11E0A11AB108940109F040CF1D
:103A80008FE3E82E86E0F82E22E030E03A832983A7
:103A900098E3C92ED12CD7018D917D01FD01E1580C
:103AA000FF4F60816602B00111248802600D711D14
:103AB0001124072E000C880B990B0E94DA350E9406
:103AC00052370E94A2359B016933710514F028E337
:103AD00030E037FF02C030E020E0A601421B530B6C
:103AE00001E010E069817A8184EA97E00E94580D34
:103AF000E981FA813296FA83E983E038F10559F6D3
:103B000081E090E09093B7078093B6079093B50754
:103B10008093B4071092B1071092B007D092B30708
:103B2000C092B20786E79BE00E94C313E09145076D
:103B3000E43108F476C00E9434179B01AC0160E8C0
:103B400076E988E99AE40E9430356B017C0120E037
:103B500030EC49E754E40E948A3618160CF0BEC0D7
:103B600020E030E04AE754E4C701B6010E94303556
:103B70006B017C0120E030E040E05FE30E948F3683
:103B80004B015C0120E030E047EC52E4C701B60194
:103B90000E948A3618160CF051C08AE390E0909388
:103BA000B1078093B00728E330E03093B307209348
:103BB000B20750E040E0C501B4010E94F01A8BE664
:103BC0000E94DE1388E690E09093B1078093B007DF
:103BD00068E370E07093B3076093B20750E040E091
:103BE000C701B6010E94F01A8BE62A960FB6F89428
:103BF000DEBF0FBECDBFDF91CF911F910F91FF9020
:103C0000EF90DF90CF90BF90AF909F908F907F907C
:103C10006F905F904F903F902F900C94DE1380E850
:103C20002DCE04E0E09FF0011124E65EFE4E65918A
:103C30007591859194910E94D8357FCF23E333E32A
:103C40004FE151E4C701B6010E948A36181614F5F7
:103C50008AE390E09093B1078093B00788E390E007
:103C60009093B3078093B20750E040E0C501B401E0
:103C70000E94F01A8BE60E94DE138EE690E090938D
:103C8000B1078093B007A8E3B0E0B093B307A09367
:103C9000B207A4CF84E390E09093B1078093B0077C
:103CA000E8E3F0E0F093B307E093B20741E050E0BF
:103CB000C501B4010E94F01A8BE60E94DE1388E66B
:103CC00090E09093B1078093B00708E310E0109361
:103CD000B3070093B20741E050E082CF8AE390E05F
:103CE0009093B1078093B00728E330E03093B30797
:103CF0002093B20720E030E040E05FE3C701B60167
:103D00000E948F3650E040E00E94F01A8EE690E06C
:103D10009093B1078093B00768E370E07093B307A6
:103D20006093B20750E040E0C701B6012A960FB693
:103D3000F894DEBF0FBECDBFDF91CF911F910F91E1
:103D4000FF90EF90DF90CF90BF90AF909F908F90BB
:103D50007F906F905F904F903F902F900C94F01A4F
:103D6000CF93DF9300D000D01F92CDB7DEB7E82FFE
:103D7000F0E0EE0FFF1FE055F54F65917491CE0115
:103D800001960E94A1340E94E91A0F900F900F90A3
:103D90000F900F90DF91CF910895CF93DF9300D0D4
:103DA00000D01F92CDB7DEB7E0914507F0E0EE0FEF
:103DB000FF1FE658F54F65917491CE0101960E9460
:103DC000A1340E94E91A0F900F900F900F900F905E
:103DD000DF91CF910895CF93DF9300D000D01F9251
:103DE000CDB7DEB7E82FF0E0EE0FFF1FE059F54F3B
:103DF00065917491CE0101960E94A1340E94E91A46
:103E00000F900F900F900F900F90DF91CF9108952A
:103E10002F923F924F925F926F927F928F929F92DA
:103E2000AF92BF92CF92DF92EF92FF920F931F93C8
:103E3000CF93DF93CDB7DEB769970FB6F894DEBFA7
:103E40000FBECDBFF12CE12C00E410E02BE130E0FF
:103E500050E040E065E670E084EA97E00E94D71405
:103E600080912C06813009F47CC308F4F9C28230B9
:103E700009F4B4C3833009F494C4F0900601FF2020
:103E800009F4BDC2209107012E83222309F4B7C291
:103E9000AEE3B6E08EEB96E0EFEFF0E010E000E08E
:103EA00020E030E0A9016D91862E912CB12CA12C3F
:103EB000280D391D4A1D5B1D2F010F2E000C6608B1
:103EC000770884149504A604B70414F4E62FF0E0F0
:103ED0002801012E000C66087708481459046A046A
:103EE0007B0414F4062F10E08A179B07E1F6109369
:103EF000920500939105F0939405E0939305AAE051
:103F0000B0E00E944D39605C7F4F8F4F9F4FA7E01C
:103F10009595879577956795AA95D1F770939605AE
:103F200060939505F0FE32C1E00FF11F8F01000F85
:103F3000111FE00FF11F4F01959487941E811A8A7B
:103F40001B8A1C8A1D8A1A861986C12CD12C7601DF
:103F500018861F821E8A1F8A188E198E1B86AA2415
:103F6000A394B12CC5010E9465173C01C5010196BF
:103F70009D878C87112309F4CEC4861497040CF412
:103F80001DC50E9465178C01881699060CF016C590
:103F9000140126183708B101032C000C880B990B6B
:103FA0000E94DA352B013C01B80168197909620DCC
:103FB000731D072E000C880B990B0E94DA359B01AC
:103FC000AC01C301B2010E9430352B013C01B501A7
:103FD000BB0C880B990B0E94DA359B01AC01C30125
:103FE000B2010E94BF346E877F87888B998B9B8537
:103FF000992309F487C42E893F89488D598D998961
:104000000E94BE346A8B7B8B8C8B9D8B2F81388575
:104010002F5F3F4F38872F833E813B8710E0AC8472
:10402000BD843EE7A316B10409F09CCF8F8198852B
:10403000009709F4C5C429853A85232B09F4C0C427
:10404000BC01990F880B990B0E94DA359B01AC01DA
:104050006A897B898C899D890E9430354B015C017E
:1040600029853A85B901330F880B990B0E94DA35FF
:104070009B01AC01C701B6010E9430356B017C0188
:10408000E0914507E43108F4A7C40E9434179B016E
:10409000AC01C501B4010E948F369B01AC0160E800
:1040A00076E988E19BE40E9430352B013C01409287
:1040B0008D0550928E0560928F057092900520E0DC
:1040C00030E048EC52E4C701B6010E948F36A501EA
:1040D00094010E9430356093890570938A0580931E
:1040E0008B0590938C0581E090E09093B5078093C9
:1040F000B4071092B7071092B60786E390E090934A
:10410000B1078093B0071092B3071092B20720E076
:1041100030EE49E754E4C301B2010E942B3542E07E
:1041200050E087FD0CC028EF33E244E759E4C301B7
:10413000B2010E942B3587FF5CC450E040E0C30110
:10414000B2010E94F01A8DEF99E00E94C313809192
:104150003D0681111BC082E490E09093B1078093EB
:10416000B00788E090E09093B3078093B207609126
:10417000890570918A0580918B0590918C0542E0AC
:1041800050E00E94F01A85E20E94DE138091060141
:1041900081FF35C180913D06811131C18091430776
:1041A0008E836091950570919605E0909105F09051
:1041B00092050091930510919405813059F488E59A
:1041C00092E09C01261B370BB9019E2D8F2D7801A3
:1041D000092F182FE091420734E0E39FF0011124EA
:1041E000E35EFA4F80809180A280B38020900B0123
:1041F00030900C01072E000C880B990B0E94DA35C9
:104200002DEC3CEC4CEC52E40E948F3620E030E088
:1042100040E054E40E94BE342B013C01C501B401CE
:104220000E94DA359B01AC01C301B2010E94303516
:104230002B013C01B101032C000C880B990B0E944F
:10424000DA359B01AC01C301B2010E94BE3420E00B
:1042500030E040EA50E40E948F3620E030EC4FE737
:1042600054E40E9430352B013C018E81813031F4C1
:104270008CE390E09C012E193F097901B701FF0CF6
:10428000880B990B3AE0660F771F881F991F3A95A4
:10429000D1F7725081099109A50194010E94193941
:1042A0002219330985E0829FB001839F700D11248C
:1042B000072E000C880B990B0E94DA3520E030ECB9
:1042C0004FE754E40E9430356B017C013E81313070
:1042D00031F48CE390E09C01201B310B8901012E0D
:1042E000000C220B330BC901B8012AE0660F771FBF
:1042F000881F991F2A95D1F7725081099109A5014C
:1043000094010E9419392219330985E0829FB00176
:10431000839F700D1124072E000C880B990B0E94AF
:10432000DA3520E030EC4FE754E40E9430354B01A1
:104330005C0186E390E09093B1078093B00780E141
:1043400090E09093B3078093B20788E09AE00E94D0
:10435000C31342E050E0C701B6010E94F01A20E00A
:1043600030E0A901C701B6010E948A3687FD03C06B
:1043700086E50E94DE1386E390E09093B107809378
:10438000B00788E190E09093B3078093B20784E090
:104390009AE00E94C31342E050E0C301B2010E94C0
:1043A000F01A20E030E0A901C301B2010E948A3670
:1043B00087FD03C086E50E94DE1386E390E09093BC
:1043C000B1078093B00780E290E09093B3078093A9
:1043D000B20780E09AE00E94C31342E050E0C501BA
:1043E000B4010E94F01A20E030E0A901C501B40137
:1043F0000E948A3687FD03C086E50E94DE13809105
:104400003C06811114C080913D06811110C080913D
:104410000A014CE350E0481B510901E010E023E0A1
:1044200030E064E670E084EA97E00E94B50E699699
:104430000FB6F894DEBF0FBECDBFDF91CF911F91B5
:104440000F91FF90EF90DF90CF90BF90AF909F9033
:104450008F907F906F905F904F903F902F90089536
:1044600080E00E949D1980914307823009F45EC06C
:10447000809142070E94EB1E81E00E949D1980916D
:104480004107823009F45AC08091450785508F302A
:1044900008F054C0809140070E94EB1E82E00E9409
:1044A0009D190E94CD1E83E00E949D1980914507B1
:1044B000843108F04BC083E69AE00E94C31384E085
:1044C0000E949D19E0913F07F0E0EE0FFF1FE452BC
:1044D000F64F65917491CE0101960E94A1340E941D
:1044E000E91A85E00E949D1980914407811131C02D
:1044F0008AE59AE00E94C31380913E0781112CC087
:1045000088E10E94DE1386E00E949D1981E59AE011
:104510000E94C31387E00E949D19809107018823A0
:10452000E9F08DE49AE00E94C313A7CC8CE69AE0F0
:104530000E94C31384E00E94C6199ECF88E69AE0C9
:104540000E94C31382E00E94C619A8CF8EE59AE0AC
:10455000B4CF86E59AE0CECF89E1D3CF88E49AE064
:10456000E2CF80E00E949D1984E49AE00E94C31388
:1045700082E00E94C61981E00E949D198091430744
:104580000E94B01E82E00E949D19809142070E9405
:10459000EB1E83E00E949D198FE39AE00E94C313F3
:1045A00084E00E949D198BE39AE00E94C31384E08B
:1045B0000E94C61985E00E949D19809141070E94C2
:1045C000B01E86E00E949D19809140070E94EB1E5C
:1045D00087E00E949D1986E39AE0A5CF80E00E94C3
:1045E0009D19809142070E94EB1E81E00E949D1957
:1045F0000E94CD1E82E00E949D1980913D0681118E
:104600003CCC82E39AE00E94C31383E00E949D1990
:104610008DE29AE00E94C31384E00E949D1988E213
:104620009AE00E94C31385E00E949D1984E29AE0FB
:104630000E94C31386E00E949D198FE19AE00E94B8
:10464000C31387E00E949D198AE19AE00E94C31378
:1046500080913306882309F410CC8091340685516B
:10466000833008F00ACCE0913206F0E0EE0FFF1F35
:10467000E251FF4EA591B491209130063091310660
:1046800050E040E02F5F3F4F4F4F5F4F0E9458393F
:104690000E94DA359B01AC0160E074E284E79BE4A0
:1046A0000E9430356B017C0181E090E09093B5076A
:1046B0008093B4071092B7071092B60788E490E091
:1046C0009093B1078093B00788E390E09093B3078D
:1046D0008093B20720E030E040E251E4C701B60128
:1046E0000E942B3545E050E087FD32C020E030E0ED
:1046F00048EC52E4C701B6010E942B3544E050E07B
:1047000087FD26C020E030E04AE754E4C701B60147
:104710000E942B3543E050E087FD1AC020E030E4D2
:104720004CE156E4C701B6010E942B3542E050E04F
:1047300087FD0EC020E030E543EC57E4C701B60129
:104740000E942B3541E050E087FD02C050E040E080
:10475000C701B6010E94F01A84EE99E00E94C313CB
:1047600088E490E09093B1078093B00780E390E0F5
:104770009093B3078093B2076091050170E090E0D9
:1047800080E00E94DA3520E030E048EC5EE30E94F1
:104790008F3641E050E00E94F01A85E20E94DE135D
:1047A0006CCB80E00E949D19809142070E94EB1E15
:1047B00081E00E949D190E94CD1E82E00E949D19F9
:1047C00086E19AE00E94C31383E00E949D19E09164
:1047D0002E06F0E0EE0FFF1FE951F64F6591749140
:1047E000CE0101960E94A1340E94E91A84E00E9441
:1047F0009D1981E19AE00E94C31380912F068823BE
:1048000071F181E090E09093B5078093B407109226
:10481000B7071092B60788E490E09093B1078093B1
:10482000B00788E390E09093B3078093B20760915C
:1048300001017091020180910301909104010E9495
:10484000DA352AE037ED43E25CE30E948F3642E03E
:1048500050E00E94F01A87EF99E00E94C31385E0B0
:104860000E949D198CE09AE00E94C31380919B05E1
:10487000882309F402CB8091A9058823F9F02FB78A
:10488000F8946091AA057091AB058091AC05909168
:10489000AD051092A9052FBF0E94D83520E535E15E
:1048A00040E85FE30E948F360E94A935609385053A
:1048B00070938605809387059093880581E090E04A
:1048C0009093B5078093B4071092B7071092B6077C
:1048D0008AE490E09093B1078093B00780E390E082
:1048E0009093B3078093B207609185057091860518
:1048F00080918705909188054AE00E94A51A8AEF69
:1049000099E011CE3E853E8B8F858F8B9889988F4D
:104910002989298F81CB681479040CF480CB8C858C
:104920009D850E9465171C01881599050CF077CBB1
:104930008B85882309F442C0830108191909B8013D
:10494000012E000C880B990B0E94DA352B013C01DB
:10495000B40162197309600F711F072E000C880BD8
:10496000990B0E94DA359B01AC01C301B2010E9490
:1049700030352B013C01B501BB0C880B990B0E9413
:10498000DA359B01AC01C301B2010E94BF342E8510
:104990003F85488959890E94BE349B01AC01C701FB
:1049A000B6010E94BF346B017C0129853A852F5FD7
:1049B0003F4F3A8729871E811B8731CB1E812FCB22
:1049C000C12CD12C760142EC842E4DEB942E40EF7D
:1049D000A42E4CE7B42E54CB34E0E39FF001112415
:1049E000E65EFE4E65917591859194910E94D83551
:1049F0004ECB20E030E04AE754E4C301B2010E940C
:104A0000303550E040E00E94F01A8BE60E94DE1341
:104A10009ACBCF92DF92EF92FF920F931F93CF9397
:104A20000E94570A6B017C0180917D0590917E0563
:104A3000A0917F05B0918005A7019601281B390B35
:104A40004A0B5B0BDA01C901883C9105A105B10550
:104A500070F1C0927D05D0927E05E0927F05F092C4
:104A6000800589E00E946309892B49F187E00E9453
:104A70006309892B09F454C088E00E946309CAE0E5
:104A8000892B19F189E00E946309C3E0892BE9F0C1
:104A90008CE00E946309C7E0892BB9F087E00E948F
:104AA0006309C0E0892B89F08FEF80930001CF91DB
:104AB0001F910F91FF90EF90DF90CF9008958CE0C1
:104AC0000E946309892B91F6CBE0809100018C173D
:104AD00041F0C0928105D0928205E0928305F09268
:104AE000840528E833E13093360620933506CC3030
:104AF000F9F480913C0691E0892780933C06F12CE3
:104B0000E12C00E410E02BE130E050E040E065E60D
:104B100070E084EA97E00E94D714C0930001C7CFE9
:104B200088E00E946309892B09F0A6CFCCE0CDCFA5
:104B300020912C06213009F46EC058F0223009F47F
:104B400074C1233009F41FC20E94081F0E948A0CFE
:104B5000E4CFE0913406E830C8F4F0E0EE54FA4DCA
:104B60000C9438391926B426D227C625BA25D4255F
:104B7000EE250026C33071F480913F07823020F487
:104B80008F5F80933F0702C010923F078C2F0E94D7
:104B90001C1ADACFC730D1F780913F07882311F074
:104BA0008150EFCF82E0EDCFC33059F480913E07C2
:104BB000811104C081E080933E07E8CF10923E0748
:104BC000E5CFC73019F780914407811104C081E017
:104BD00080934407DBCF10924407D8CFC33041F411
:104BE00080910A018C3390F68F5F80930A01CECFBB
:104BF000C73061F680910A01882341F28150F5CFD8
:104C00008C2F8B7F833011F68091070191E08927EB
:104C100080930701BBCF809134068850990B833075
:104C20009105B9F154F481309105E1F0029709F052
:104C3000ADCF8C2F0E94861AA9CF8630910509F43A
:104C400093C08730910509F493C0059709F09ECF72
:104C5000C33009F07EC080914107811177C0209355
:104C6000410794CFC33051F480914307811103C0B1
:104C7000209343078BCF1092430788CFC73009F0AA
:104C800085CF809143078230B1F382E08093430760
:104C90007DCFC33011F500910B0110910C010F3F36
:104CA00033E013070CF072CFE091420744E0E49F39
:104CB000F0011124E35EFA4F20813181428153815A
:104CC00060E074E080E090E00E941939200F311F0D
:104CD00030930C0120930B0159CFC730D1F40091D0
:104CE0000B0110910C0102305CEF15070CF44ECF54
:104CF000E091420784E0E89FF0011124E35EFA4F5F
:104D0000208131814281538160E07CEF8FEF9FEF02
:104D1000DBCFCB3009F03ACF82E00E946309892BC8
:104D200081F4E0914207F0E0EE0FFF1FEE52F64FE4
:104D300085919591A591B49190930C0180930B016D
:104D400025CF10920C0110920B0120CF1092410739
:104D50001DCFC73009F01ACF809141078230B1F3DF
:104D600082E08093410712CF8C2F0E94741A0ECFDD
:104D7000C33011F500910801109109010F3F23E0A4
:104D800012070CF003CFE091400734E0E39FF001FD
:104D90001124E35EFA4F208131814281538160E02A
:104DA00074E080E090E00E941939200F311F3093A9
:104DB000090120930801EACEC730D1F4009108011F
:104DC0001091090102304CEF14070CF4DFCEE09192
:104DD000400754E0E59FF0011124E35EFA4F208183
:104DE00031814281538160E07CEF8FEF9FEFDBCF19
:104DF000CB3009F0CBCE84E00E946309892B81F48B
:104E0000E0914007F0E0EE0FFF1FEE52F64F859164
:104E10009591A591B4919093090180930801B6CE24
:104E20001092090110920801B1CEE0913406E051D0
:104E3000FF0BE830F10508F0A9CEEF5DF84D0C94BA
:104E400038391926D2272927352743274F276627A0
:104E5000AF27C33021F481E080933D0697CEC73061
:104E600009F094CE10923D0691CE809106018160AA
:104E7000C33031F0C73009F089CE809106018E7FB2
:104E80008093060183CE809106018260C330C1F316
:104E9000809106018D7FC73009F078CEF1CFC33005
:104EA00031F480E00E949E160E948C1627C0C73005
:104EB00009F06CCE88E1809381001092800062E05E
:104EC0008AE00E94BA091092330660CE8C17D1F0A6
:104ED00081E0C33079F590913306992341F19091A7
:104EE000050120E031E0291B3109821713061CF46B
:104EF000890F8093050180E00E949E1681E08093D7
:104F0000330644CE0E94570A009181051091820514
:104F10002091830530918405601B710B820B930BEC
:104F2000693873418105910598F288E0D2CF0E94DB
:104F30008C16E1CFC73009F029CE90913306992322
:104F4000B1F390910501282F082E000C330B921716
:104F5000130689F284F2981B90930501CCCF8C2F15
:104F60000E94EB19C33031F4909133068195911171
:104F7000C3CF97CFC73009F009CE9091330699235C
:104F800009F48FCFB9CF809134068851990B8230C4
:104F9000910509F47FC054F4009709F44ACE0197B3
:104FA00009F0F4CD8C2F0E94591AF0CD8430910570
:104FB00009F4A6C00CF480C0059709F0E7CDC33012
:104FC00009F0B8C080914507843108F0DFCD0E9418
:104FD000331810922F0688E1809381001092800090
:104FE00062E08AE00E94BA091092330681E0809361
:104FF0009B051092B5051092B4051092B70510925A
:10500000B6051092AE051092AF051092B005109241
:10501000B1051092A9059091800090939A05909106
:105020008100909399051092810010928000109257
:1050300085001092840086BB10926F008091B000B2
:10504000809398058091B100809397051092B100EC
:1050500082E08093B0009CE79093B30097E0909338
:105060007C0587BB1092B2002DE730E03093B3058A
:105070002093B2052FB7F89483BD30917C0530930F
:10508000B100809370008BE08150F1F79093810024
:105090002FBF7CCDC33041F40E94CE190E94471827
:1050A00081E080932F0672CDC73009F06FCD0E944A
:1050B000331810922F066ACDC33091F4E0912E067A
:1050C000EF5FE770E0932E06F0E0EE0FFF1FE6586B
:1050D000F44F8591949190939E0580939D0556CDB4
:1050E000C73009F053CD80912E06823030F08150C8
:1050F00080932E06E0912E06E7CFC0932E06FACFBE
:105100008C2F0E94EB19682FC33041F4062E000C3F
:10511000770B880B990B0E94781738CDC73009F0B0
:1051200035CD772761950CF47095072E000C880B10
:10513000990BF1CFC73009F029CD0E94CE1926CDA9
:105140005F926F927F928F929F92AF92BF92CF9217
:10515000DF92EF92FF920F931F93CF93DF93809193
:105160003C064FE7842E912C811103C033E6832E39
:10517000912C80914107823039F08091450785500C
:10518000552453948F3008F0512CCEE3D6E0712C87
:10519000612C2CE3C22ED12C53018FEFA81AB80A30
:1051A00080914307823089F089818601081B1109AB
:1051B0008881A601481B5109EE24E394F12C950146
:1051C000B30184EA97E00E9442145520A9F0FE0141
:1051D000EF57FF4F80818601081B110931978081AD
:1051E000A601481B5109EE24E394F12C9501B3016B
:1051F00084EA97E00E9442140E9409252196350115
:10520000A814B90449F6DF91CF911F910F91FF9037
:10521000EF90DF90CF90BF90AF909F908F907F9056
:105220006F905F900895EF92FF920F931F93CF932B
:10523000DF9380913C0694E6E92EF12C882319F047
:1052400080E8E82EF12CD0E0C0E010E000E021E0A2
:1052500030E0A801BE0184EA97E00E9412100E948B
:105260000925065F1F4F0634110589F72296EC16B3
:10527000FD065CF7D0E0C0E010E000E021E030E0A7
:10528000A801BE0184EA97E00E9412100E9409253D
:105290000E5F1F4F0E33110589F72A96EC16FD0697
:1052A0005CF7DF91CF911F910F91FF90EF900895E0
:1052B0001F920F920FB60F9211242F933F938F934B
:1052C0009F93AF93BF9380911D0690911E06A0916E
:1052D0001F06B091200630911C0623E0230F2D37C6
:1052E00058F50196A11DB11D20931C0680931D0643
:1052F00090931E06A0931F06B0932006809121066E
:1053000090912206A0912306B09124060196A11D3A
:10531000B11D8093210690932206A0932306B0939B
:105320002406BF91AF919F918F913F912F910F9044
:105330000FBE0F901F90189526E8230F0296A11D0F
:10534000B11DD2CF1F920F920FB60F9211242F933F
:105350003F934F935F936F937F938F939F93AF93FD
:10536000BF93EF93FF938091B900887F803609F453
:105370004AC0F0F5883209F4A7C018F5803109F465
:105380009BC0B8F4882309F4F9C0883009F494C0AC
:10539000FF91EF91BF91AF919F918F917F916F910D
:1053A0005F914F913F912F910F900FBE0F901F90E3
:1053B0001895883109F488C0803251F780936C07C2
:1053C00014C0803409F49DC040F48033B9F38833AD
:1053D000F9F680936C0785ECB0C0803509F485C080
:1053E000883509F496C0883499F60E94D31BD0CF33
:1053F000883909F48CC038F5883729F050F488369C
:1054000011F0803729F683E080936E0710921B0617
:1054100057C0883809F47BC0803919F0803809F00A
:10542000B7CF80911B06803208F071C0E0911B0657
:1054300081E08E0F80931B068091BB00F0E0E55069
:10544000FA4F80833DC0803B39F0E0F4803A09F4A4
:1054500079C0883A09F09CCF84E080936E0710925F
:10546000FA051092F905E0912706F09128060995B2
:105470008091F90581110FC081E08093F9051092A8
:10548000D90509C0803C09F4A6CF883C09F4A3CF14
:10549000883B09F07DCFE091FA0581E08E0F809383
:1054A000FA05F0E0E752FA4F80818093BB009091BB
:1054B000FA058091F90529C0809149078093BB00C6
:1054C00085EC8093BC0064CF90916B0780916A0754
:1054D000981758F5E0916B0781E08E0F80936B076A
:1054E000F0E0E65BF84F8081E9CFE0916B0781E067
:1054F0008E0F80936B078091BB00F0E0E65BF84F66
:10550000808390916B0780916A079817C8F285E8AD
:10551000D8CFE0916B0781E08E0F80936B0780916D
:10552000BB00F0E0E65BF84F808380916D0781114E
:105530005CCF81E08093480784EA8093BC0010929E
:105540006E0726CF85EC8093BC0010926E07809189
:105550001B06803230F4E0911B06F0E0E550FA4F74
:10556000108260911B0670E0E0912506F0912606FE
:105570008BEF95E0099510921B060ACF10926C07ED
:1055800034CF1F920F920FB60F9211240F931F93D7
:105590002F933F934F935F936F937F938F939F933B
:1055A000AF93BF932091840030918500B09B0BC0D6
:1055B00081E086BB8091B6059091B70501969093E6
:1055C000B7058093B6058091B4059091B505019615
:1055D0004091B2055091B3058417950708F445C072
:1055E0001092B5051092B4058091B6059091B7055B
:1055F000B0E0A0E0DC0199278827820F931FA11D4E
:10560000B11D4091AE055091AF056091B00570910C
:10561000B1058C019D01041B150B260B370BB9013D
:10562000A8014093AA055093AB056093AC05709315
:10563000AD058093AE059093AF05A093B005B093F0
:10564000B10581E08093A905BF91AF919F918F91A2
:105650007F916F915F914F913F912F911F910F918A
:105660000F900FBE0F901F9018959093B5058093E3
:10567000B405EACF1F920F920FB60F9211244F93E9
:105680005F936F937F938F939F93AF93BF93EF93AA
:10569000FF938091A0059091A105A091A205B091E2
:1056A000A3054091A4055091A5056091A6057091B0
:1056B000A705840F951FA61FB71F8093A005909381
:1056C000A105A093A205B093A3058091A005909198
:1056D000A105A091A205B091A3058B2F9927AA2718
:1056E000BB2780939F05E0919F0580919D05909138
:1056F0009E05E80FF92FF11DE491E093B30080912E
:105700009C0591E0980F90939C058D3738F080911F
:10571000A8058F5F8093A80510929C05FF91EF91DB
:10572000BF91AF919F918F917F916F915F914F91B9
:105730000F900FBE0F901F901895E8E9F7E01382C5
:10574000128288EE93E0A0E0B0E084839583A68384
:10575000B78385E395E091838083E4EAF7E01382E1
:10576000128220E830E03583248380E490E0978340
:1057700086833187208793878287168A15861486C9
:105780001786168681E0858B848B2FEF3FEF338B56
:10579000228B318B208B878B108E128E118E87E49B
:1057A00095E0918380838FEF858F81A3878F868F8C
:1057B00080A30895789484B5826084BD84B58160A7
:1057C00084BD85B5826085BD85B5816085BD8091CC
:1057D0006E00816080936E00109281008091810044
:1057E000826080938100809181008160809381003C
:1057F000809180008160809380008091B1008460FE
:105800008093B1008091B00081608093B00080915E
:105810007A00846080937A0080917A00826080931D
:105820007A0080917A00816080937A0080917A007A
:10583000806880937A001092C10062E082E00E944A
:10584000BA0962E084E00E94BA0962E087E00E943F
:10585000BA0962E088E00E94BA0962E089E00E9429
:10586000BA0961E08AE00E94BA0961E08BE00E9417
:10587000BA0962E08CE00E94BA0983E080937E005E
:1058800082E08093C0078CE38093BF078091C107BB
:105890008F3F09F41DC361E08091C3070E94BA09DC
:1058A00061E08091C5070E94BA098091C507082E62
:1058B000000C990BFC01E652FF4EE491F0E0EE0F74
:1058C000FF1FE053FF4E259134913093CC07209376
:1058D000CB07FC01E454FF4EE491E093D1078091A3
:1058E000C307082E000C990BFC01E652FF4EE49111
:1058F000F0E0EE0FFF1FE053FF4E259134913093FF
:10590000CE072093CD07FC01E454FF4EE491E093D1
:10591000D2078091C60781113EC061E08091C10726
:105920000E94BA0961E08091C2070E94BA09809181
:10593000C207082E000C990BFC01E652FF4EE491C1
:10594000F0E0EE0FFF1FE053FF4E259134913093AE
:10595000CA072093C907FC01E454FF4EE491E09389
:10596000D0078091C107082E000C990BFC01E6526C
:10597000FF4EE491F0E0EE0FFF1FE053FF4E259144
:1059800034913093C8072093C707FC01E454FF4EBD
:10599000E491E093CF078091C607882309F439C0CA
:1059A000CFB7F89480912B06811127C0E4EEF0E187
:1059B0008491E6ECF0E19491E82FF0E0EE0FFF1F08
:1059C000EE54FF4EA591B491EC91E92321F461E0EE
:1059D0008AE00E948C0961E08AE00E94BA098CB5D5
:1059E00080618CBD8CB580648CBD61E08DE00E94CF
:1059F000BA0961E08BE00E94BA0980912B068F5FA3
:105A000080932B06CFBF8CB58C7F8CBD8DB581600C
:105A10008DBD61E08091C4070E94BA0961E0809168
:105A2000C4070E948C0961E070E080E090E00E9471
:105A3000250A60E08091C4070E948C096AE070E04A
:105A400080E090E00E94250A61E08091C4070E94F6
:105A50008C098EEA0E94360C85ED0E94360C80E897
:105A60000E94360C88EA0E94360C8FE30E94360CA6
:105A700083ED0E94360C80E00E94360C80E40E9488
:105A8000360C8DE80E94360C84E10E94360C80E2D0
:105A90000E94360C80E00E94360C81EA0E94360C8F
:105AA00088EC0E94360C8AED0E94360C82E10E943E
:105AB000360C81E80E94360C8FEC0E94360C89ED82
:105AC0000E94360C81EF0E94360C8BED0E94360C42
:105AD00080E40E94360C84EA0E94360C86EA0E941A
